:100000000C943D000C9428040C9428040C942804AF
:100010000C9428040C9467000C9428040C94280475
:100020000C9428040C9428040C9428040C942804A0
:100030000C9428040C9428040C9428040C94280490
:100040000C9428040C9428040C9428040C94280480
:100050000C9428040C9428040C9428040C94280470
:100060000C9428040C9428040100050A80050A0554
:100070000E000854050E0510800011241FBECFEF9E
:10008000D8E0DEBFCDBFE8E6F0E040E017C0B591B4
:10009000A59135912591059107FD0CC0959185910C
:1000A000EF01F92FE82F05900D92A217B307D9F7AA
:1000B000FE0104C01D92A217B307E1F7E937F40768
:0E00C00031F70E945E030C946500F894FFCFA8
:1000CE001F920F9200905F000F9211242F933F9377
:1000DE004F935F936F937F938F939F93AF93BF9342
:1000EE00EF93FF93CF93DF9300D0CDB7DEB785E0CC
:1000FE0090E09A8389838091080590910905019675
:10010E00909309058093080580910A0590910B053F
:10011E00282F80910C0590910D05622F0E943302BD
:10012E0080910E0590910F050197E9F420910C0531
:10013E0030910D0589819A8182179307A0F08091E5
:10014E000A0590910B052FEF280F80910C059091C9
:10015E000D05982F8981392F381B832F8258622FD6
:10016E000E94B90104C010920F0510920E05209145
:10017E000C0530910D0589819A812817390789F070
:10018E0080910A0590910B05282F80910C05909176
:10019E000D05982F8981E92FE81B8E2F622F0E9463
:1001AE00B9018091080590910905019799F5809103
:1001BE000C0590910D058E37910550F480910C052C
:1001CE0090910D05019690930D0580930C051CC022
:1001DE0080910C0590910D058E379105A8F081E068
:1001EE0090E090930D0580930C0581E090E0909344
:1001FE000F0580930E0580910A0590910B050196CF
:10020E0090930B0580930A058BE290E020E1FC01B0
:10021E00208304C0109209051092080500000F906B
:10022E000F90DF91CF91FF91EF91BF91AF919F9181
:10023E008F917F916F915F914F913F912F910F9081
:0A024E0000925F000F901F901895BA
:10025800CF93DF9300D000D000D0CDB7DEB79E8318
:100268008D8378948D819E8199230CF407969595BA
:10027800879595958795959587959A8389838D8197
:100288009E8187709078992324F40197886F9F6FD7
:1002980001969C838B838AE290E020E1FC01208315
:1002A8008BE290E020E1FC01208388E690E028E6DC
:1002B80030E0F9012081422F21E030E0098002C0BE
:1002C800220F331F0A94E2F7242BFC012083898133
:1002D8009A8181309105C9F08230910549F1892BC5
:1002E80009F039C08BE690E02BE630E0F901208177
:1002F800422F21E030E00B8002C0220F331F0A9406
:10030800E2F7242BFC01208326C08CE690E02CE643
:1003180030E0F9012081422F21E030E00B8002C05B
:10032800220F331F0A94E2F7242BFC01208313C009
:100338008DE690E02DE630E0F9012081422F21E0A2
:1003480030E00B8002C0220F331F0A94E2F7242BFF
:10035800FC0120830000000026960FB6F894DEBF4B
:0A0368000FBECDBFDF91CF910895C5
:10037200CF93DF9300D000D000D0CDB7DEB78D830E
:100382006E838E81869586958695882F90E09A83D6
:1003920089838E81882F90E0877099279C838B8335
:1003A2008D818E5F8D838D81482F50E08D81682FE6
:1003B20070E029813A81C9019695982F88279795EF
:1003C2008795820F931F860F971F80509F4FFC01C6
:1003D2008081282F81E090E00B8002C0880F991F56
:1003E2000A94E2F780958223682F29813A81C90114
:1003F2009695982F882797958795820F931F840F3C
:10040200951F80509F4FFC0160838981806B0E9401
:10041200D5038D818F700E94D5038D8182958F7057
:1004220080610E94D5038D81482F50E029813A8155
:10043200C9019695982F882797958795820F931FC4
:10044200840F951F80509F4FFC0180810E94ED0315
:10045200000026960FB6F894DEBF0FBECDBFDF9127
:04046200CF91089599
:10046600CF93DF9300D000D000D0CDB7DEB78D8319
:100476006E838E81869586958695882F90E09A83E1
:1004860089838E81882F90E0877099279C838B8340
:100496008D818E5F8D838D81482F50E08D81682FF1
:1004A60070E029813A81C9019695982F88279795FA
:1004B6008795820F931F860F971F80509F4FFC01D1
:1004C6008081282F81E090E00B8002C0880F991F61
:1004D6000A94E2F7822B682F29813A81C901969501
:1004E600982F882797958795820F931F840F951FBE
:1004F60080509F4FFC0160838981806B0E94D503E9
:100506008D818F700E94D5038D8182958F70806159
:100516000E94D5038D81482F50E029813A81C90177
:100526009695982F882797958795820F931F840F06
:10053600951F80509F4FFC0180810E94ED030000B3
:1005460026960FB6F894DEBF0FBECDBFDF91CF91D2
:02055600089506
:10055800CF93DF93CDB7DEB70E94BB038EEA0E942C
:10056800D50388EA0E94D5038FE30E94D50383ED63
:100578000E94D50380E00E94D50380E40E94D50341
:1005880081EA0E94D50380EC0E94D5038AED0E947F
:10059800D50382E10E94D50381E80E94D5038CEC43
:1005A8000E94D50384EA0E94D50386EA0E94D503F7
:1005B80085ED0E94D50380E80E94D5038DE80E944E
:1005C800D50384E10E94D5038FEA0E94D5030E94D7
:0A05D80028030000DF91CF91089581
:1005E200CF93DF9300D0CDB7DEB71A8219820FC046
:1005F2008981682F80E00E9433028981682F8FE70A
:100602000E94330289819A8101969A838983898122
:100612009A818034910564F31A8219820DC089810E
:100622006FE30E943302898160E00E943302898174
:100632009A8101969A83898389819A81803891056A
:0E06420074F300000F900F90DF91CF91089598
:10065000CF93DF9300D0CDB7DEB71A8226C060E01B
:100660008A810E94A00319821AC080E00E94ED03D3
:100670008A81282F30E08981482F50E0C901969562
:10068000982F882797958795820F931F840F951F22
:1006900080509F4FFC01108289818F5F89838981FF
:1006A000823818F38A818F5F8A838A818830B8F212
:0C06B00000000F900F90DF91CF91089593
:1006BC00CF93DF93CDB7DEB78BE690E0FC011082D1
:1006CC008CE690E0FC0110828DE690E0FC0110823B
:1006DC008FE590E02FE530E0F90120812068FC01E6
:1006EC0020830E94AC020E94F10260E280E40E942E
:0C06FC00330284E190E00E942C01FFCF4B
:10070800CF93DF931F92CDB7DEB789838BEB90E051
:100718002981FC0120838CEB90E024E8FC012083F4
:1007280000008CEB90E0FC0180818823D4F7000066
:080738000F90DF91CF910895AD
:10074000CF93DF9300D0CDB7DEB789836A838981E9
:10075000806B0E94D5038A818F700E94D5038A81A5
:1007600082958F70805F0E94D50300000F900F90DC
:06077000DF91CF91089516
:10077600CF93DF93CDB7DEB789EB90E0FC01108213
:100786008CEB90E02CEB30E044E0F9014083FC0177
:10079600408388EB90E02CE0FC0120830000DF9191
:0407A600CF91089552
:1007AA00CF93DF931F92CDB7DEB789830E940504EA
:1007BA0088E70E94840380E00E94840389810E9462
:1007CA0084030E941B0400000F90DF91CF910895CB
:1007DA00CF93DF931F92CDB7DEB789830E940504BA
:1007EA0088E70E94840380E40E94840389810E942E
:1007FA0084030E941B0400000F90DF91CF9108959B
:10080A00CF93DF93CDB7DEB70E94BB038CEB90E0AA
:10081A0024EAFC01208300008CEB90E0FC0180813B
:0C082A008823D4F70000DF91CF910895DF
:10083600CF93DF93CDB7DEB78CEB90E024E9FC01D4
:0A08460020830000DF91CF91089598
:040850000C94000004
:020854000100A1
:0208560001009F
:00000001FF
