:100000000C943D000C9499080C9499080C94990850
:100010000C9499080C9405060C9499080C94990872
:100020000C9499080C9499080C9499080C949908CC
:100030000C9499080C9499080C9499080C949908BC
:100040000C9499080C9499080C9499080C949908AC
:100050000C9499080C9499080C9499080C9499089C
:100060000C9499080C94990801000510800510055E
:100070001A001136051A051C800011241FBECFEF8F
:10008000D8E0DEBFCDBFE8E6F0E040E017C0B591B4
:10009000A59135912591059107FD0CC0959185910C
:1000A000EF01F92FE82F05900D92A217B307D9F7AA
:1000B000FE0104C01D92A217B307E1F7E937F40768
:0E00C00031F70E94AF050C946500F894FFCF55
:1000CE00CF93DF93CDB7DEB7A0970FB6F894DEBF10
:1000DE000FBECDBF809118059091190590930D0517
:1000EE0080930C058CC18091020190910301892BA4
:1000FE0009F48EC18091120590911305019718167F
:10010E0019060CF0B1C080911405909115058E372B
:10011E0091050CF0A9C080911205909113059A8358
:10012E0089831DC080910C0590910D059AEF980F53
:10013E008981692F0E94CC0480910C0590910D0548
:10014E002AEF280F80911205909113058150622F8E
:10015E000E94520489819A8101969A8389838091A3
:10016E0014059091150529813A8182179307D4F6CB
:10017E008091100590911105092E000CAA0BBB0B56
:10018E00BC01CD010E949B06DC01CB0189879A87B9
:10019E00AB87BC8720E030E048EC53E469857A8574
:1001AE008B859C850E949208DC01CB018D879E87F2
:1001BE00AF87B88B20E030E040E85FE36D857E8549
:1001CE008F8598890E94880888232CF481E090E01E
:1001DE009A8B898B3FC020E03FEF4FE757E46D8548
:1001EE007E858F8598890E948D0818164CF520E023
:1001FE0030E040E251E469857A858B859C850E94CA
:10020E009208DC01CB01BC01CD010E944307DC0149
:10021E00CB019A8B898B0FC088E290E09C8B8B8BE5
:10022E008B899C890197F1F79C8B8B8B89899A8995
:10023E0001979A8B898B89899A89892B69F714C0C2
:10024E006D857E858F8598890E944307DC01CB01E1
:10025E009A8B898B89899A899E8B8D8B8D899E89A4
:10026E000197F1F79E8B8D8B80911405909115055A
:10027E008E37910509F0B1C01C821B829DC0809102
:10028E000C0590910D052AEF280F80911405909181
:10029E001505982F8B81890F8750622F0E9452046B
:1002AE008091100590911105092E000CAA0BBB0B25
:1002BE00BC01CD010E949B06DC01CB018D839E8388
:1002CE00AF83B88720E030E048EC53E46D817E8147
:1002DE008F8198850E949208DC01CB018F8B988FBD
:1002EE00A98FBA8F20E030E040E85FE36F89788D08
:1002FE00898D9A8D0E94880888232CF481E090E0E5
:10030E009C8F8B8F3FC020E03FEF4FE757E46F8904
:10031E00788D898D9A8D0E948D0818164CF520E0E7
:10032E0030E040E251E46D817E818F8198850E949C
:10033E009208DC01CB01BC01CD010E944307DC0118
:10034E00CB019C8F8B8F0FC088E290E09E8F8D8F9C
:10035E008D8D9E8D0197F1F79E8F8D8F8B8D9C8D40
:10036E0001979C8F8B8F8B8D9C8D892B69F714C079
:10037E006F89788D898D9A8D0E944307DC01CB01A0
:10038E009C8F8B8F8B8D9C8D98A38F8F8F8D98A12B
:10039E000197F1F798A38F8F80910C0590910D0521
:1003AE009AEF980F8B818F5F692F0E94CC048B81FF
:1003BE009C8101969C838B838B819C8107970CF487
:1003CE005ECF81E090E0909313058093120587E055
:1003DE0090E09093150580931405809114059091EB
:1003EE0015050196909315058093140580911205BD
:1003FE0090911305019690931305809312058091A9
:10040E001205909113058F3791050CF46CCE01C037
:10041E000000A0960FB6F894DEBF0FBECDBFDF91E1
:04042E00CF910895CD
:10043200CF93DF93CDB7DEB7A0970FB6F894DEBFA8
:100442000FBECDBF809114059091150590930F05B5
:1004520080930E0586C18091000190910101892B44
:1004620009F488C180911605909117050197181615
:1004720019060CF0AEC080911805909119050197EC
:10048200CF970CF0A6C080911605909117059A831C
:1004920089831AC0298180910E0590910F05622FE0
:1004A2000E94CC0480911605909117052FEF280F1A
:1004B20080910E0590910F05622F0E94520489814E
:1004C2009A8101969A8389838091180590911905E2
:1004D20029813A8128173907ECF280911005909111
:1004E2001105092E000CAA0BBB0BBC01CD010E9409
:1004F2009B06DC01CB0189879A87AB87BC8720E00A
:1005020030E048EC53E469857A858B859C850E94AE
:100512009208DC01CB018D879E87AF87B88B20E0E4
:1005220030E040E85FE36D857E858F8598890E9483
:10053200880888232CF481E090E09A8B898B3FC055
:1005420020E03FEF4FE757E46D857E858F859889E0
:100552000E948D0818164CF520E030E040E251E48C
:1005620069857A858B859C850E949208DC01CB0186
:10057200BC01CD010E944307DC01CB019A8B898B20
:100582000FC088E290E09C8B8B8B8B899C890197B2
:10059200F1F79C8B8B8B89899A8901979A8B898B2E
:1005A20089899A89892B69F714C06D857E858F8523
:1005B20098890E944307DC01CB019A8B898B898938
:1005C2009A899E8B8D8B8D899E890197F1F79E8BDF
:1005D2008D8B8091180590911905CF9709F0AFC0C6
:1005E2001C821B829BC08091180590911905982F3F
:1005F2008B81890F29EF280F80910E0590910F05AD
:10060200622F0E9452048091100590911105092ECB
:10061200000CAA0BBB0BBC01CD010E949B06DC01A6
:10062200CB018D839E83AF83B88720E030E048EC16
:1006320053E46D817E818F8198850E949208DC014E
:10064200CB018F8B988FA98FBA8F20E030E040E8E2
:100652005FE36F89788D898D9A8D0E94880888233F
:100662002CF481E090E09C8F8B8F3FC020E03FEF25
:100672004FE757E46F89788D898D9A8D0E948D0896
:1006820018164CF520E030E040E251E46D817E81A5
:100692008F8198850E949208DC01CB01BC01CD01BB
:1006A2000E944307DC01CB019C8F8B8F0FC088E235
:1006B20090E09E8F8D8F8D8D9E8D0197F1F79E8F8D
:1006C2008D8F8B8D9C8D01979C8F8B8F8B8D9C8DAD
:1006D200892B69F714C06F89788D898D9A8D0E9454
:1006E2004307DC01CB019C8F8B8F8B8D9C8D98A354
:1006F2008F8F8F8D98A10197F1F798A38F8F8B81A0
:1007020021E0280F80910E0590910F05622F0E9423
:10071200CC048B819C8101969C838B838B819C81F1
:1007220007970CF460CF81E090E0909317058093D7
:10073200160587E090E09093190580931805809143
:100742001805909119050196909319058093180543
:100752008091160590911705019690931705809345
:1007620016058091160590911705803491050CF4B9
:1007720072CE01C00000A0960FB6F894DEBF0FBE85
:08078200CDBFDF91CF91089576
:10078A00CF93DF9300D000D000D0CDB7DEB79E83E1
:10079A008D8378948D819E8199230CF40796959583
:1007AA00879595958795959587959A8389838D8160
:1007BA009E8187709078992324F40197886F9F6FA0
:1007CA0001969C838B838AE290E020E1FC012083DE
:1007DA008BE290E020E1FC01208388E690E028E6A5
:1007EA0030E0F9012081422F21E030E0098002C087
:1007FA00220F331F0A94E2F7242BFC0120838981FC
:10080A009A8181309105C9F08230910549F1892B8D
:10081A0009F039C08BE690E02BE630E0F90120813F
:10082A00422F21E030E00B8002C0220F331F0A94CE
:10083A00E2F7242BFC01208326C08CE690E02CE60C
:10084A0030E0F9012081422F21E030E00B8002C024
:10085A00220F331F0A94E2F7242BFC01208313C0D2
:10086A008DE690E02DE630E0F9012081422F21E06B
:10087A0030E00B8002C0220F331F0A94E2F7242BC8
:10088A00FC0120830000000026960FB6F894DEBF14
:0A089A000FBECDBFDF91CF9108958E
:1008A400CF93DF9300D000D000D0CDB7DEB78D83D7
:1008B4006E838E81869586958695882F90E09A839F
:1008C40089838E81882F90E0877099279C838B83FE
:1008D4008D818E5F8D838D81482F50E08D81682FAF
:1008E40070E029813A81C9019695982F88279795B8
:1008F4008795820F931F860F971F8C5F9E4FFC0175
:100904008081282F81E090E00B8002C0880F991F1E
:100914000A94E2F780958223682F29813A81C901DC
:100924009695982F882797958795820F931F840F04
:10093400951F8C5F9E4FFC0160838981806B0E94B0
:1009440009088D818F700E9409088D8182958F70AE
:1009540080610E9409088D81482F50E029813A81E5
:10096400C9019695982F882797958795820F931F8D
:10097400840F951F8C5F9E4FFC0180810E9421088B
:10098400000026960FB6F894DEBF0FBECDBFDF91F0
:04099400CF91089562
:10099800CF93DF9300D000D000D0CDB7DEB78D83E2
:1009A8006E838E81869586958695882F90E09A83AA
:1009B80089838E81882F90E0877099279C838B8309
:1009C8008D818E5F8D838D81482F50E08D81682FBA
:1009D80070E029813A81C9019695982F88279795C3
:1009E8008795820F931F860F971F8C5F9E4FFC0180
:1009F8008081282F81E090E00B8002C0880F991F2A
:100A08000A94E2F7822B682F29813A81C9019695C9
:100A1800982F882797958795820F931F840F951F86
:100A28008C5F9E4FFC0160838981806B0E9409085E
:100A38008D818F700E9409088D8182958F708061E9
:100A48000E9409088D81482F50E029813A81C90107
:100A58009695982F882797958795820F931F840FCF
:100A6800951F8C5F9E4FFC0180810E942108000029
:100A780026960FB6F894DEBF0FBECDBFDF91CF919B
:020A88000895CF
:100A8A000FC00E94740838F00E947B0820F095235A
:100A9A0011F00C9482080C94960811240C946E0898
:100AAA000E94960770F3959FC1F3950F50E0551F6A
:100ABA00629FF001729FBB27F00DB11D639FAA27A9
:100ACA00F00DB11DAA1F649F6627B00DA11D661FF8
:100ADA00829F2227B00DA11D621F739FB00DA11D19
:100AEA00621F839FA00D611D221F749F3327A00DD3
:100AFA00611D231F849F600D211D822F762F6A2F6F
:100B0A0011249F5750409AF0F1F088234AF0EE0FD3
:100B1A00FF1FBB1F661F771F881F91505040A9F700
:100B2A009E3F510580F00C9482080C946E085F3F3A
:100B3A00E4F3983ED4F3869577956795B795F7953C
:100B4A00E7959F5FC1F7FE2B880F911D96958795B4
:040B5A0097F908956A
:100B5E00CF93DF9300D0CDB7DEB78BE690E0FC01EC
:100B6E0010828CE690E0FC0110828DE690E0FC0194
:100B7E0010828FE590E02FE530E0F90120812068AA
:100B8E00FC0120830E9454060E94D6061A82198206
:100B9E000AC08981682F80E40E94CC0489819A81E1
:100BAE0001969A83898389819A81CE9794F384E101
:100BBE0090E00E94C50381E090E090930301809342
:100BCE0002018091020190910301019741F48091FD
:100BDE00000190910101892B11F40E946700809110
:100BEE00020190910301892B61F780910001909190
:0C0BFE000101019731F70E941902E3CFBA
:100C0A001F920F9200905F000F9211248F939F936F
:100C1A00CF93DF93CDB7DEB7109203011092020192
:100C2A0081E090E0909301018093000180911A0580
:100C3A0090911B05892BE9F481E090E090931B05C4
:100C4A0080931A0580910E0590910F058F379105B3
:100C5A0034F081E090E090930F0580930E05809127
:100C6A000E0590910F05019690930F0580930E053E
:100C7A000BC080911A0590911B051816190624F4C9
:100C8A0010921B0510921A050000DF91CF919F91D7
:0E0C9A008F910F9000925F000F901F901895A1
:100CA800CF93DF93CDB7DEB70E94EF078EEA0E949D
:100CB800090888EA0E9409088FE30E94090883ED61
:100CC8000E94090880E00E94090880E40E9409083F
:100CD80081EA0E94090880EC0E9409088AED0E94B6
:100CE800090882E10E94090881E80E9409088CEC41
:100CF8000E94090884EA0E94090886EA0E940908F5
:100D080085ED0E94090880E80E9409088DE80E9484
:100D1800090884E10E9409088FEA0E9409080E94D4
:0A0D28000D070000DF91CF91089540
:100D3200E89409C097FB3EF4909580957095619573
:100D42007F4F8F4F9F4F9923A9F0F92F96E9BB2729
:100D52009395F695879577956795B795F111F8CFA5
:100D6200FAF4BB0F11F460FF1BC06F5F7F4F8F4F10
:100D72009F4F16C0882311F096E911C0772321F006
:100D82009EE8872F762F05C0662371F096E8862F9E
:100D920070E060E02AF09A95660F771F881FDAF7F5
:0A0DA200880F9695879597F908953C
:100DAC00CF93DF9300D0CDB7DEB71A8219820FC074
:100DBC008981682F80E00E94CC048981682F8FE79D
:100DCC000E94CC0489819A8101969A8389838981B6
:100DDC009A818034910564F31A8219820DC089813D
:100DEC006FE30E94CC04898160E00E94CC0489816D
:100DFC009A8101969A83898389819A818038910599
:0E0E0C0074F300000F900F90DF91CF910895C6
:100E1A00CF93DF9300D0CDB7DEB71A8226C060E049
:100E2A008A810E94D40719821AC080E00E94210890
:100E3A008A81282F30E08981482F50E0C901969590
:100E4A00982F882797958795820F931F840F951F50
:100E5A008C5F9E4FFC01108289818F5F8983898113
:100E6A00823818F38A818F5F8A838A818830B8F240
:0C0E7A0000000F900F90DF91CF910895C1
:100E86000E949E0788F09F5798F0B92F9927B7516F
:100E9600B0F0E1F0660F771F881F991F1AF0BA9518
:100EA600C9F714C0B13091F00E946D08B1E0089501
:100EB6000C946D08672F782F8827B85F39F0B93FF3
:100EC600CCF3869577956795B395D9F73EF49095CB
:0E0ED6008095709561957F4F8F4F9F4F0895C7
:100EE400990F0008550FAA0BE0E8FEEF1616170637
:100EF400E807F907C0F012161306E407F50798F09F
:100F0400621B730B840B950B39F40A2661F0232BB7
:100F1400242B252B21F408950A2609F4A140A69533
:080F24008FEF811D811D08956E
:100F2C0057FD9058440F551F59F05F3F71F047958E
:100F3C00880F97FB991F61F09F3F79F08795089573
:100F4C00121613061406551FF2CF4695F1DF08C092
:100F5C00161617061806991FF1CF869571056105AF
:040F6C000894089548
:100F7000CF93DF931F92CDB7DEB789838BEB90E0E1
:100F80002981FC0120838CEB90E024E8FC01208384
:100F900000008CEB90E0FC0180818823D4F70000F6
:080FA0000F90DF91CF9108953D
:100FA800CF93DF9300D0CDB7DEB789836A83898179
:100FB800806B0E9409088A818F700E9409088A81C3
:100FC80082958F70805F0E94090800000F900F9033
:060FD800DF91CF910895A6
:100FDE00CF93DF93CDB7DEB789EB90E0FC011082A3
:100FEE008CEB90E02CEB30E044E0F9014083FC0107
:100FFE00408388EB90E02CE0FC0120830000DF9121
:04100E00CF910895E1
:10101200CF93DF931F92CDB7DEB789830E94390841
:1010220088E70E94B80780E00E94B80789810E9481
:10103200B8070E94600800000F90DF91CF910895D9
:10104200CF93DF931F92CDB7DEB789830E94390811
:1010520088E70E94B80780E40E94B80789810E944D
:10106200B8070E94600800000F90DF91CF910895A9
:10107200CF93DF93CDB7DEB70E94EF078CEB90E002
:1010820024EAFC01208300008CEB90E0FC018081CB
:0C1092008823D4F70000DF91CF9108956F
:10109E00092E0394000C11F4882352F0BB0F40F478
:1010AE00BF2B11F460FF04C06F5F7F4F8F4F9F4FB8
:0210BE00089593
:1010C000CF93DF93CDB7DEB78CEB90E024E9FC0142
:0A10D00020830000DF91CF91089506
:0E10DA00E894BB2766277727CB0197F9089586
:0E10E80000240A941616170618060906089525
:0E10F60000240A941216130614060506089527
:0C11040097F99F6780E870E060E00895B4
:0A1110000E94720708F481E00895C0
:0A111A000E94720708F48FEF089599
:081124000E9445050C944F08E0
:06112C009FEF80EC089526
:041132000C94000019
:02113600E803CC
:021138000100B4
:02113A000700AC
:02113C000100B0
:02113E000700A8
:00000001FF
