:100000000C943D000C947D090C947D090C947D09A1
:100010000C947D090C94FA040C947D090C947D09D0
:100020000C947D090C947D090C947D090C947D0938
:100030000C947D090C947D090C947D090C947D0928
:100040000C947D090C947D090C947D090C947D0918
:100050000C947D090C947D090C947D090C947D0908
:100060000C947D090C947D09010005128005120590
:100070001C0012FE051C051E800011241FBECFEFC0
:10008000D8E0DEBFCDBFE8E6F0E040E017C0B591B4
:10009000A59135912591059107FD0CC0959185910C
:1000A000EF01F92FE82F05900D92A217B307D9F7AA
:1000B000FE0104C01D92A217B307E1F7E937F40768
:0E00C00031F70E94E2060C946500F894FFCF21
:1000CE00CF93DF93CDB7DEB7AE970FB6F894DEBF02
:1000DE000FBECDBF80911405909115050197909399
:1000EE0001018093000180911605909117050197EB
:1000FE00909311058093100528C280910201909172
:10010E000301892B09F42AC28091180590911905D3
:10011E000197181619060CF050C180911A0590918E
:10012E001B050197CF970CF048C18091180590914F
:10013E0019059A838983BBC02981809110059091FE
:10014E001105622F0E94FF052091100530911105B7
:10015E008091000190910101A901481B590BCA0120
:10016E0099230CF492C080910E0590910F05282FC3
:10017E008091000190910101622F0E94850580916E
:10018E00120590911305092E000CAA0BBB0BBC0196
:10019E00CD010E947F07DC01CB018D879E87AF8743
:1001AE00B88B20E030E048EC53E46D857E858F857A
:1001BE0098890E947609DC01CB01898B9A8BAB8BD7
:1001CE00BC8B20E030E040E85FE369897A898B8957
:1001DE009C890E946C0988232CF481E090E09E8B10
:1001EE008D8B3FC020E03FEF4FE757E469897A8956
:1001FE008B899C890E94710918164CF520E030E01D
:10020E0040E251E46D857E858F8598890E9476093E
:10021E00DC01CB01BC01CD010E942708DC01CB0122
:10022E009E8B8D8B0FC088E290E0988F8F8B8F897D
:10023E00988D0197F1F7988F8F8B8D899E890197F5
:10024E009E8B8D8B8D899E89892B69F714C0698948
:10025E007A898B899C890E942708DC01CB019E8BB1
:10026E008D8B8D899E899A8F898F898D9A8D019715
:10027E00F1F79A8F898F809100019091010101967B
:10028E0090930101809300010DC08091180590910B
:10029E0019052FEF280F8091100590911105622FEF
:1002AE000E94850589819A8101969A83898380911E
:1002BE001A0590911B0529813A81281739070CF4EC
:1002CE003BCF8091120590911305092E000CAA0BBD
:1002DE00BB0BBC01CD010E947F07DC01CB018D83DE
:1002EE009E83AF83B88720E030E048EC53E46D8105
:1002FE007E818F8198850E947609DC01CB018B8FE0
:10030E009C8FAD8FBE8F20E030E040E85FE36B8DB9
:10031E007C8D8D8D9E8D0E946C0988232CF481E03E
:10032E0090E098A38F8F3FC020E03FEF4FE757E458
:10033E006B8D7C8D8D8D9E8D0E94710918164CF5DE
:10034E0020E030E040E251E46D817E818F8198851E
:10035E000E947609DC01CB01BC01CD010E94270869
:10036E00DC01CB0198A38F8F0FC088E290E09AA397
:10037E0089A389A19AA10197F1F79AA389A38F8DD9
:10038E0098A1019798A38F8F8F8D98A1892B69F7CC
:10039E0014C06B8D7C8D8D8D9E8D0E942708DC0187
:1003AE00CB0198A38F8F8F8D98A19CA38BA38BA12C
:1003BE009CA10197F1F79CA38BA380911A059091B4
:1003CE001B05CF9709F0AFC01C821B829BC080918A
:1003DE001A0590911B05982F8B81890F29EF280FF5
:1003EE008091100590911105622F0E9485058091D4
:1003FE00120590911305092E000CAA0BBB0BBC0124
:10040E00CD010E947F07DC01CB0189879A87AB87DC
:10041E00BC8720E030E048EC53E469857A858B8513
:10042E009C850E947609DC01CB018DA39EA3AFA310
:10043E00B8A720E030E040E85FE36DA17EA18FA178
:10044E0098A50E946C0988232CF481E090E09AA76D
:10045E0089A73FC020E03FEF4FE757E46DA17EA193
:10046E008FA198A50E94710918164CF520E030E076
:10047E0040E251E469857A858B859C850E947609D8
:10048E00DC01CB01BC01CD010E942708DC01CB01B0
:10049E009AA789A70FC088E290E09CA78BA78BA58F
:1004AE009CA50197F1F79CA78BA789A59AA5019703
:1004BE009AA789A789A59AA5892B69F714C06DA15A
:1004CE007EA18FA198A50E942708DC01CB019AA7D7
:1004DE0089A789A59AA59EA78DA78DA59EA50197EB
:1004EE00F1F79EA78DA78B8121E0280F8091100533
:1004FE0090911105622F0E94FF058B819C810196C0
:10050E009C838B838B819C8107970CF460CF81E059
:10051E0090E0909319058093180587E090E09093F2
:10052E001B0580931A0580911A0590911B05019663
:10053E0090931B0580931A058091180590911905CB
:10054E000196909319058093180580911805909146
:10055E001905803491050CF4D0CD01C00000AE9683
:10056E000FB6F894DEBF0FBECDBFDF91CF910895C9
:10057E00CF93DF93CDB7DEB7A0970FB6F894DEBF5B
:10058E000FBECDBF809118059091190590930F0560
:10059E0080930E0588C18091040190910501892BED
:1005AE0009F48AC1809114059091150501971816CA
:1005BE0019060CF0AFC080911605909117058F3774
:1005CE0091050CF0A7C080911405909115059A83A2
:1005DE0089831BC080910E0590910F05982F8981FC
:1005EE00692F0E94FF0580910E0590910F05282F0F
:1005FE0080911405909115058150622F0E948505FA
:10060E0089819A8101969A838983809116059091AA
:10061E00170529813A8182179307E4F68091120516
:10062E0090911305092E000CAA0BBB0BBC01CD013A
:10063E000E947F07DC01CB0189879A87AB87BC8735
:10064E0020E030E048EC53E469857A858B859C8503
:10065E000E947609DC01CB018D879E87AF87B88B10
:10066E0020E030E040E85FE36D857E858F859889D8
:10067E000E946C0988232CF481E090E09A8B898B80
:10068E003FC020E03FEF4FE757E46D857E858F85B5
:10069E0098890E94710918164CF520E030E040E26E
:1006AE0051E469857A858B859C850E947609DC01EB
:1006BE00CB01BC01CD010E942708DC01CB019A8B36
:1006CE00898B0FC088E290E09C8B8B8B8B899C89E9
:1006DE000197F1F79C8B8B8B89899A8901979A8B5D
:1006EE00898B89899A89892B69F714C06D857E85D6
:1006FE008F8598890E942708DC01CB019A8B898B04
:10070E0089899A899E8B8D8B8D899E890197F1F7A8
:10071E009E8B8D8B80911605909117058F379105C5
:10072E0009F0AFC01C821B829BC080910E05909178
:10073E000F05282F8091160590911705982F8B8104
:10074E00890F8750622F0E94850580911205909126
:10075E001305092E000CAA0BBB0BBC01CD010E9488
:10076E007F07DC01CB018D839E83AF83B88720E0AA
:10077E0030E048EC53E46D817E818F8198850E9434
:10078E007609DC01CB018F8B988FA98FBA8F20E071
:10079E0030E040E85FE36F89788D898D9A8D0E94F5
:1007AE006C0988232CF481E090E09C8F8B8F3FC0E6
:1007BE0020E03FEF4FE757E46F89788D898D9A8D52
:1007CE000E94710918164CF520E030E040E251E429
:1007DE006D817E818F8198850E947609DC01CB0127
:1007EE00BC01CD010E942708DC01CB019C8F8B8FB1
:1007FE000FC088E290E09E8F8D8F8D8D9E8D01971C
:10080E00F1F79E8F8D8F8B8D9C8D01979C8F8B8F8B
:10081E008B8D9C8D892B69F714C06F89788D898D8E
:10082E009A8D0E942708DC01CB019C8F8B8F8B8DBC
:10083E009C8D98A38F8F8F8D98A10197F1F798A318
:10084E008F8F80910E0590910F05982F8B818F5F62
:10085E00692F0E94FF058B819C8101969C838B835F
:10086E008B819C8107970CF460CF81E090E0909390
:10087E0015058093140587E090E0909317058093FB
:10088E001605809116059091170501969093170500
:10089E0080931605809114059091150501969093FD
:1008AE0015058093140580911405909115058038D7
:1008BE0091050CF470CE01C00000A0960FB6F8940E
:0C08CE00DEBF0FBECDBFDF91CF910895BB
:1008DA00CF93DF9300D000D000D0CDB7DEB79E8390
:1008EA008D8378948D819E8199230CF40796959532
:1008FA00879595958795959587959A8389838D810F
:10090A009E8187709078992324F40197886F9F6F4E
:10091A0001969C838B838AE290E020E1FC0120838C
:10092A008BE290E020E1FC01208388E690E028E653
:10093A0030E0F9012081422F21E030E0098002C035
:10094A00220F331F0A94E2F7242BFC0120838981AA
:10095A009A8181309105C9F08230910549F1892B3C
:10096A0009F039C08BE690E02BE630E0F9012081EE
:10097A00422F21E030E00B8002C0220F331F0A947D
:10098A00E2F7242BFC01208326C08CE690E02CE6BB
:10099A0030E0F9012081422F21E030E00B8002C0D3
:1009AA00220F331F0A94E2F7242BFC01208313C081
:1009BA008DE690E02DE630E0F9012081422F21E01A
:1009CA0030E00B8002C0220F331F0A94E2F7242B77
:1009DA00FC0120830000000026960FB6F894DEBFC3
:0A09EA000FBECDBFDF91CF9108953D
:1009F4001F920F9200905F000F9211242F933F9348
:100A04004F935F936F937F938F939F93AF93BF9312
:100A1400EF93FF93CF93DF9300D0CDB7DEB710925F
:100A240005011092040181E090E09093030180930A
:100A3400020180911C0590911D05892B09F041C08C
:100A440081E090E090931D0580931C05809118052A
:100A5400909119059A83898314C08091100590910F
:100A640011051816190644F42981809110059091F6
:100A74001105622F0E94850589819A8101969A83C6
:100A8400898380911A0590911B0529813A81281741
:100A940039071CF380911005909111058F3791054A
:100AA40034F081E090E090931105809310058091DB
:100AB40010059091110501969093110580931005EE
:100AC4000BC080911C0590911D051816190624F47D
:100AD40010921D0510921C0500000F900F90DF91DD
:100AE400CF91FF91EF91BF91AF919F918F917F91A2
:100AF4006F915F914F913F912F910F9000925F0002
:060B04000F901F901895F0
:100B0A00CF93DF9300D000D000D0CDB7DEB78D836E
:100B1A006E838E81869586958695882F90E09A8336
:100B2A0089838E81882F90E0877099279C838B8395
:100B3A008D818E5F8D838D81482F50E08D81682F46
:100B4A0070E029813A81C9019695982F882797954F
:100B5A008795820F931F860F971F8A5F9E4FFC010E
:100B6A008081282F81E090E00B8002C0880F991FB6
:100B7A000A94E2F780958223682F29813A81C90174
:100B8A009695982F882797958795820F931F840F9C
:100B9A00951F8A5F9E4FFC0160838981806B0E944A
:100BAA00ED088D818F700E94ED088D8182958F707E
:100BBA0080610E94ED088D81482F50E029813A8199
:100BCA00C9019695982F882797958795820F931F25
:100BDA00840F951F8A5F9E4FFC0180810E94050940
:100BEA00000026960FB6F894DEBF0FBECDBFDF9188
:040BFA00CF910895FA
:100BFE00CF93DF9300D000D000D0CDB7DEB78D837A
:100C0E006E838E81869586958695882F90E09A8341
:100C1E0089838E81882F90E0877099279C838B83A0
:100C2E008D818E5F8D838D81482F50E08D81682F51
:100C3E0070E029813A81C9019695982F882797955A
:100C4E008795820F931F860F971F8A5F9E4FFC0119
:100C5E008081282F81E090E00B8002C0880F991FC1
:100C6E000A94E2F7822B682F29813A81C901969561
:100C7E00982F882797958795820F931F840F951F1E
:100C8E008A5F9E4FFC0160838981806B0E94ED0814
:100C9E008D818F700E94ED088D8182958F7080619D
:100CAE000E94ED088D81482F50E029813A81C901BB
:100CBE009695982F882797958795820F931F840F67
:100CCE00951F8A5F9E4FFC0180810E9405090000DE
:100CDE0026960FB6F894DEBF0FBECDBFDF91CF9133
:020CEE00089567
:100CF0000FC00E94580938F00E945F0920F0952328
:100D000011F00C9466090C947A0911240C94520980
:100D10000E947A0870F3959FC1F3950F50E0551F1C
:100D2000629FF001729FBB27F00DB11D639FAA2740
:100D3000F00DB11DAA1F649F6627B00DA11D661F8F
:100D4000829F2227B00DA11D621F739FB00DA11DB0
:100D5000621F839FA00D611D221F749F3327A00D6A
:100D6000611D231F849F600D211D822F762F6A2F06
:100D700011249F5750409AF0F1F088234AF0EE0F6B
:100D8000FF1FBB1F661F771F881F91505040A9F798
:100D90009E3F510580F00C9466090C9452095F3F08
:100DA000E4F3983ED4F3869577956795B795F795D4
:100DB000E7959F5FC1F7FE2B880F911D969587954C
:040DC00097F9089502
:100DC400CF93DF9300D0CDB7DEB78BE690E0FC0184
:100DD40010828CE690E0FC0110828DE690E0FC012C
:100DE40010828FE590E02FE530E0F9012081206842
:100DF400FC0120830E9438070E94BA071A821982D4
:100E04000AC08981682F80E40E94FF0589819A8144
:100E140001969A83898389819A81CE9794F384E198
:100E240090E00E946D0481E090E09093050180932E
:100E340004018091040190910501019741F480918E
:100E4400020190910301892B11F40E94BF02809149
:100E5400040190910501892B61F780910201909121
:0C0E64000301019731F70E946700E3CF03
:100E7000CF93DF93CDB7DEB70E94D3088EEA0E94EE
:100E8000ED0888EA0E94ED088FE30E94ED0883EDEB
:100E90000E94ED0880E00E94ED0880E40E94ED08C9
:100EA00081EA0E94ED0880EC0E94ED088AED0E9424
:100EB000ED0882E10E94ED0881E80E94ED088CECCB
:100EC0000E94ED0884EA0E94ED0886EA0E94ED087F
:100ED00085ED0E94ED0880E80E94ED088DE80E94F3
:100EE000ED0884E10E94ED088FEA0E94ED080E945F
:0A0EF000F1070000DF91CF91089593
:100EFA00E89409C097FB3EF49095809570956195AA
:100F0A007F4F8F4F9F4F9923A9F0F92F96E9BB275F
:100F1A009395F695879577956795B795F111F8CFDB
:100F2A00FAF4BB0F11F460FF1BC06F5F7F4F8F4F46
:100F3A009F4F16C0882311F096E911C0772321F03C
:100F4A009EE8872F762F05C0662371F096E8862FD4
:100F5A0070E060E02AF09A95660F771F881FDAF72B
:0A0F6A00880F9695879597F9089572
:100F7400CF93DF9300D0CDB7DEB71A8219820FC0AA
:100F84008981682F80E00E94FF058981682F8FE79F
:100F94000E94FF0589819A8101969A8389838981B8
:100FA4009A818034910564F31A8219820DC0898173
:100FB4006FE30E94FF05898160E00E94FF0589813B
:100FC4009A8101969A83898389819A8180389105CF
:0E0FD40074F300000F900F90DF91CF910895FD
:100FE200CF93DF9300D0CDB7DEB71A8226C060E080
:100FF2008A810E94B80819821AC080E00E940509FD
:101002008A81282F30E08981482F50E0C9019695C6
:10101200982F882797958795820F931F840F951F86
:101022008A5F9E4FFC01108289818F5F898389814B
:10103200823818F38A818F5F8A838A818830B8F276
:0C10420000000F900F90DF91CF910895F7
:10104E000E94820888F09F5798F0B92F9927B751C0
:10105E00B0F0E1F0660F771F881F991F1AF0BA954E
:10106E00C9F714C0B13091F00E945109B1E0089552
:10107E000C945109672F782F8827B85F39F0B93F44
:10108E00CCF3869577956795B395D9F73EF4909501
:0E109E008095709561957F4F8F4F9F4F0895FD
:1010AC00990F0008550FAA0BE0E8FEEF161617066D
:1010BC00E807F907C0F012161306E407F50798F0D5
:1010CC00621B730B840B950B39F40A2661F0232BEE
:1010DC00242B252B21F408950A2609F4A140A6956A
:0810EC008FEF811D811D0895A5
:1010F40057FD9058440F551F59F05F3F71F04795C5
:10110400880F97FB991F61F09F3F79F087950895A9
:10111400121613061406551FF2CF4695F1DF08C0C8
:10112400161617061806991FF1CF869571056105E5
:04113400089408957E
:10113800CF93DF931F92CDB7DEB789838BEB90E017
:101148002981FC0120838CEB90E024E8FC012083BA
:1011580000008CEB90E0FC0180818823D4F700002C
:081168000F90DF91CF91089573
:10117000CF93DF9300D0CDB7DEB789836A838981AF
:10118000806B0E94ED088A818F700E94ED088A8131
:1011900082958F70805F0E94ED0800000F900F9085
:0611A000DF91CF910895DC
:1011A600CF93DF93CDB7DEB789EB90E0FC011082D9
:1011B6008CEB90E02CEB30E044E0F9014083FC013D
:1011C600408388EB90E02CE0FC0120830000DF9157
:0411D600CF91089518
:1011DA00CF93DF931F92CDB7DEB789830E941D0993
:1011EA0088E70E949C0880E00E949C0889810E94EE
:1011FA009C080E94440900000F90DF91CF91089546
:10120A00CF93DF931F92CDB7DEB789830E941D0962
:10121A0088E70E949C0880E40E949C0889810E94B9
:10122A009C080E94440900000F90DF91CF91089515
:10123A00CF93DF93CDB7DEB70E94D3088CEB90E053
:10124A0024EAFC01208300008CEB90E0FC01808101
:0C125A008823D4F70000DF91CF910895A5
:10126600092E0394000C11F4882352F0BB0F40F4AE
:10127600BF2B11F460FF04C06F5F7F4F8F4F9F4FEE
:021286000895C9
:10128800CF93DF93CDB7DEB78CEB90E024E9FC0178
:0A12980020830000DF91CF9108953C
:0E12A200E894BB2766277727CB0197F90895BC
:0E12B00000240A94161617061806090608955B
:0E12BE0000240A94121613061406050608955D
:0C12CC0097F99F6780E870E060E00895EB
:0A12D8000E94560808F481E0089512
:0A12E2000E94560808F48FEF0895EB
:0812EC000E9478060C943309FE
:0612F4009FEF80EC08955D
:0412FA000C94000050
:0212FE00E80303
:021300000100EA
:021302000700E2
:021304000100E6
:021306000700DE
:00000001FF
