:100000000C9437000C944C020C944C020C944C024F
:100010000C944C020C944C020C944C020C944C0228
:100020000C944C020C944C020C944C020C944C0218
:100030000C944C020C944C020C944C020C944C0208
:100040000C944C020C944C020C944C020C944C02F8
:100050000C944C020C944C020C944C020C944C02E8
:100060000C944C020C944C020100050080001124F9
:100070001FBECFEFD8E0DEBFCDBFE8E6F0E040E046
:1000800017C0B591A59135912591059107FD0CC03B
:1000900095918591EF01F92FE82F05900D92A21708
:1000A000B307D9F7FE0104C01D92A217B307E1F709
:1000B000ED36F40731F70E9416010C945F00F894B6
:0200C000FFCF70
:1000C200CF93DF9300D000D000D0CDB7DEB78D83C1
:1000D2006E838E81869586958695882F90E09A8389
:1000E20089838E81882F90E0877099279C838B83E8
:1000F2008D818E5F8D838D81882F90E02D81222FBF
:1001020030E049815A815695542F44275795479597
:10011200240F351F20503F4FF9012081422F21E04B
:1001220030E00B8002C0220F331F0A94E2F7242B27
:10013200422F29813A813695322F222737952795EA
:10014200820F931F80509F4FFC0140838981806BF7
:100152000E94F9018D818F700E94F9018D81829533
:100162008F7080610E94F9018D81882F90E0298132
:100172003A813695322F222737952795820F931F82
:1001820080509F4FFC0180810E9411020000269640
:100192000FB6F894DEBF0FBECDBFDF91CF910895A9
:1001A200CF93DF93CDB7DEB70E94DF018EEA0E94C4
:1001B200F90188EA0E94F9018FE30E94F90183EDB7
:1001C2000E94F90180E00E94F90180E40E94F90195
:1001D20081EA0E94F90180EC0E94F9018AED0E94F5
:1001E200F90182E10E94F90181E80E94F90180E0AF
:1001F2000E94F90184EA0E94F90186EA0E94F9014B
:1002020085ED0E94F90180E80E94F9018DE80E94C3
:10021200F90184E10E94F9018FEA0E94F9010E942A
:0A02220086010000DF91CF910895DE
:10022C00CF93DF93CDB7DEB70E94D1000E944F0170
:10023C0060E280E40E9461006DE088E10E94610050
:10024C006CE088E10E9461006BE088E10E94610033
:10025C006AE088E10E94610069E088E10E94610027
:10026C0068E088E10E94610068E089E10E94610019
:10027C0068E08AE10E94610068E08BE10E94610005
:10028C0068E08CE10E94610080E090E0DF91CF910A
:02029C000895C3
:10029E00CF93DF9300D0CDB7DEB71A8219820FC08D
:1002AE008981682F80E00E9461008981682F8FE725
:1002BE000E94610089819A8101969A83898389813E
:1002CE009A818034910564F31A8219820DC0898156
:1002DE006FE30E946100898160E00E946100898164
:1002EE009A8101969A83898389819A8180389105B2
:0E02FE0074F300000F900F90DF91CF910895E0
:10030C00CF93DF9300D0CDB7DEB71A8212C060E076
:10031C008A810E94C401198206C080E00E941102E9
:10032C0089818F5F898389818238B8F38A818F5F55
:10033C008A838A81883058F300000F900F90DF91E8
:04034C00CF910895B0
:10035000CF93DF931F92CDB7DEB789838BEB90E00D
:100360002981FC0120838CEB90E024E8FC012083B0
:1003700000008CEB90E0FC0180818823D4F7000022
:080380000F90DF91CF91089569
:10038800CF93DF9300D0CDB7DEB789836A838981A5
:10039800806B0E94F9018A818F700E94F9018A811D
:1003A80082958F70805F0E94F90100000F900F9076
:0603B800DF91CF910895D2
:1003BE00CF93DF93CDB7DEB789EB90E0FC011082CF
:1003CE008CEB90E02CEB30E044E0F9014083FC0133
:1003DE00408388EB90E02CE0FC0120830000DF914D
:0403EE00CF9108950E
:1003F200CF93DF931F92CDB7DEB789830E94290284
:1004020088E70E94A80180E00E94A80189810E94D9
:10041200A8010E943F0200000F90DF91CF91089542
:10042200CF93DF931F92CDB7DEB789830E94290253
:1004320088E70E94A80180E40E94A80189810E94A5
:10044200A8010E943F0200000F90DF91CF91089512
:10045200CF93DF93CDB7DEB70E94DF018CEB90E044
:1004620024EAFC01208300008CEB90E0FC018081F7
:0C0472008823D4F70000DF91CF9108959B
:10047E00CF93DF93CDB7DEB78CEB90E024E9FC0190
:0A048E0020830000DF91CF91089554
:040498000C940000C0
:00000001FF
